:100000004EC1000068C1000066C1000064C100006C
:1000100062C1000060C100005EC100005CC1000060
:100020005AC1000058C100000C943A0B54C10000A2
:1000300052C1000050C100004EC100004CC1000080
:100040004AC1000048C1000046C1000044C1000090
:1000500042C1000040C100003EC10000D3C6000004
:100060003AC1000038C1000036C1000034C10000B0
:1000700032C1000030C100002EC100002CC10000C0
:100080002AC1000028C1000026C1000024C10000D0
:1000900022C1000020C100001EC100001CC10000E0
:1000A0001AC1000018C1000016C100005841542DAB
:1000B000412D414C5048413B535445505045523DD1
:1000C000323B454E4453544F503D323B56424154CF
:1000D0003D312F330012034700490054005F0044B4
:1000E000004500530043000000300358002D00413C
:1000F00000540020007300740065007000700065FB
:10010000007200200063006F006E00740072006FC8
:10011000006C006C006500720000001A0358002D8E
:1001200000410054002000700072006F006A0065FA
:1001300000630074000000040309040902220001A6
:100140000100C03209040000010300000009211170
:10015000010001222F010705810340002012010048
:100160000200000040EB034F2020000102030105C4
:10017000010900A1010600FF0902A1028501150085
:1001800026FF007508953CB103C005010900A102D6
:1001900085020B010000FF150026FF007508950180
:1001A0008102050919012902150025017501950231
:1001B0008102750195068103050D093F094017016C
:1001C00000008027FFFFFF7F370100008047FFFF0F
:1001D000FF7F752095028102C00584091EA102855A
:1001E000030930150026983A350046FF036721D1F0
:1001F000F000752095018102C0050DA1028504095A
:100200003F0940150126E8036612E075109502B11A
:1002100002093F0940150126E8036612F0751095A2
:1002200002B102C0050DA1028505093F0940170171
:1002300000008027FFFFFF7F370100008047FFFF9E
:10024000FF7F752095029102C00509A1028506195C
:10025000012902150026FF0375109502B102C005A1
:100260000DA1028507093F0940170100008027FF03
:10027000FFFF7F370100008047FFFFFF7F7520955C
:1002800002B102C0A1028508093F094015002501FD
:10029000750195029102750195069103C0C0112464
:1002A0001FBECFEFDAE0DEBFCDBF11E0A0E0B1E0CE
:1002B000EAE7F4E202C005900D92A631B107D9F742
:1002C00021E0A6E1B1E001C01D92A13DB207E1F736
:1002D00003D00C943B1294CE84B7877F84BF88E10F
:1002E0000FB6F89480936000109260000FBE90E00B
:1002F00080E80FB6F89480936100909361000FBE80
:10030000209A2898559A5D983F9A47980E941D0B0D
:10031000F2D55DD120D62EE088E190E00FB6F894BA
:10032000A895809360000FBE20936000289A5D9A84
:1003300088B188B97894B0D56B017C01C1E0A895EB
:1003400082E091E00E94BB0E0E94580D56D131D63A
:10035000A3D56C197D098E099F0940910001509128
:1003600001018A0120E030E0061717072807390746
:1003700030F792D56B017C0185B18C2785B98BB1A3
:100380008BB988B188B9DBCF85B185B95D9888B163
:1003900088B984EF91E09093010180930001089562
:1003A00085B185B95D9A88B188B9089582E091E0F8
:1003B0000E94A80EE2EEF0E08081846080830895C0
:1003C00082E091E00C94740D8091100190911101E4
:1003D000009729F0019790931101809310010895DF
:1003E0000F931F93CF93DF93E901FB01808183304B
:1003F00069F1A8F4813001F18230B1F5F2D588833A
:1004000050D18983DCD56A837B838C839D83E0D53F
:100410006E837F83888799878AE090E01CC0843050
:10042000F1F0863009F533D19983888335D19B83E8
:100430008A8384E090E00FC04CE350E06CEA70E007
:10044000C9010E940A128CE390E005C01BD1998378
:10045000888382E090E0F8019183808308C0C9011D
:10046000FAD588E090E0F7CFF80111821082F80108
:1004700080819181892B31F084EF91E0909301018B
:100480008093000180E0DF91CF911F910F9108953B
:100490000F931F93C9016630F1F028F4643041F0E6
:1004A000653099F035C0673009F1683029F130C006
:1004B0000830110539F084E690E0909301018093B3
:1004C000000126C01F910F91FBC50830110599F757
:1004D0001F910F9124C60430110569F7F90162815B
:1004E0007381808191811F910F91F5C008301105B2
:1004F00011F71F910F9126C601301105E1F6F901A0
:10050000808181FB662760F981701F910F912DC654
:100510001F910F910895292F332723303105B9F00A
:100520005CF42130310599F122303105A9F582E2E0
:1005300090E02BE331E034C02132310519F1223251
:10054000310551F58FE291E02FE631E029C099277E
:100550008130910571F02CF4892BF1F4E7E3F1E09F
:100560000DC08230910541F00397B1F4E5EDF0E064
:1005700005C0EBE1F1E002C0E9EEF0E0849190E02B
:100580009F010EC089E090E02DE431E009C082E1D6
:1005900090E02DE531E004C080E090E020E030E024
:1005A000FA0131832083089580937C0090FF04C07A
:1005B00080917B00806203C080917B008F7D80935F
:1005C0007B0080917A00806480937A00089585E8AA
:1005D00080937A008798EEE7F0E0808180688083DE
:1005E0008698808180648083859880818062808302
:1005F0001092560187E490E0D7CF80917A0084FF73
:1006000040C0809156018130B9F018F0823039F144
:10061000089580917A00806180937A0080917800BB
:100620009091790090935C0180935B0181E08093CD
:10063000560186E490E024C080917A008061809326
:100640007A0080917800909179009093580180937E
:10065000570182E08093560185E490E011C08091BB
:100660007A00806180937A0080917800909179007F
:1006700090935A01809359011092560187E490E0BB
:1006800093CF089580915B0190915C0108958091D2
:10069000590190915A010895809157019091580104
:1006A000089581E04091590150915A01209114011F
:1006B000309115014217530708F080E0409157012F
:1006C00050915801209112013091130142175307A4
:1006D00008F482600895909315018093140170933B
:1006E00013016093120108954F925F926F927F926F
:1006F0008F929F92AF92BF92CF92DF92EF92FF9232
:100700000F931F93CF93DF93CDB7DEB728970FB624
:10071000F894DEBF0FBECDBF8C01DC011696CD90E4
:10072000DD90ED90FC90199712964D915D916D9131
:100730007C911597C41AD50AE60AF70A1A966D91A4
:100740007D918D919C911D979B01AC010E94501150
:100750002B013C01F80162897389848995899B0189
:10076000AC010E947A0F9B01AC01C301B2010E944F
:10077000E20F0E944A10C114D104E104F104C9F44B
:1007800062307105810591050CF080C0D801569644
:100790001D921D921D921C925997F8011286138684
:1007A000148615865E961D921D921D921C9291973D
:1007B00008C1F801868C978CA0A0B1A01C141D0460
:1007C0001E041F04FCF4181419041A041B044CF42E
:1007D0006C157D058E059F054CF526A5211156C08B
:1007E00025C081149104A104B10409F44FC06C1513
:1007F0007D058E059F050CF049C086A5813009F066
:1008000045C037C0181419041A041B04F4F48824D2
:10081000992454018C189D08AE08BF086815790505
:100820008A059B051CF426A5213081F59B01AC01AE
:1008300088279927DC01821B930BA40BB50BF801C9
:10084000868F978FA0A3B1A321C081149104A10426
:10085000B104E1F04424552432014C185D086E08BF
:100860007F08641575058605970584F486A58111B2
:100870000DC0B094A09490948094811C911CA11CF4
:10088000B11CF801868E978EA0A2B1A2D8015E9607
:100890008D909D90AD90BC90919781149104A1048E
:1008A000B104B1F492964D915D916D917C919597C3
:1008B000F80146A357A360A771A781E01C141D048B
:1008C0001E041F040CF080E0D8019E968C933CC05F
:1008D000F801C6A0D7A0E0A4F1A422A533A544A5A1
:1008E00055A529833A834B835C83A7019601C701F1
:1008F000B6010E947A0F2B013C01C501B4010E9490
:100900007D1020E030E040E850E40E94501120E0EB
:1009100030E040E85FE30E947A0F9B01AC01C30125
:10092000B2010E94E20F9B01AC01C701B6010E9417
:10093000790F29813A814B815C810E94B810F801BE
:1009400066A377A380A791A7B501A4014F5F5F4F6E
:100950006F4F7F4FD8015E964D935D936D937C935F
:10096000919796962D913D914D915C919997CA01E1
:10097000B9012D833E834F8358870E944F10F801A1
:10098000668B778B808F918F2D813E814F8158852B
:1009900060E074E284E799E40E94E20FD8011A96BD
:1009A0006D937D938D939C931D979E962C91211111
:1009B00008C0DC01CB01B058F80182879387A48777
:1009C000B58728960FB6F894DEBF0FBECDBFDF9176
:1009D000CF911F910F91FF90EF90DF90CF90BF903C
:1009E000AF909F908F907F906F905F904F90089501
:1009F0000F931F93FC0106811781208531854017D5
:100A000051076207730739F0468357836087718700
:100A10001F910F9169CE1F910F910895CF92DF9290
:100A2000EF92FF920F931F93CF93DF93EC014E89C8
:100A30005F89688D798D452B462B472B11F480E01B
:100A400044C036D26B017C010A8D1B8D2C8D3D8DEF
:100A50004E895F89688D798D400F511F621F731F0A
:100A6000401751076207730730F0C416D506E60633
:100A7000F70658F405C0C416D506E606F706F8F2E0
:100A8000C016D106E206F306D0F60A811B812C813E
:100A90003D818EA5813029F441E050E060E070E0B6
:100AA00003C04FEF5FEFBA01400F511F621F731F6A
:100AB0004A835B836C837D83E881F981CE0109954C
:100AC000CA8EDB8EEC8EFD8E81E0DF91CF911F917F
:100AD0000F91FF90EF90DF90CF9008950F931F93A9
:100AE000CF93DF93EC019ADF882311F0CE01FCDD78
:100AF00020E030E0A9016A857B858C859D850E9478
:100B0000DE0F811110C081E00E811F81288539859B
:100B10004A815B816C817D810417150726073707A1
:100B200019F480E001C081E08170DF91CF911F91C5
:100B30000F910895CF92DF92EF92FF92CF93DF93C0
:100B4000EC016A017B012E853F8548895989C701DF
:100B5000B6010E94DE0F882309F43FC0CE86DF86EF
:100B6000E88AF98AA701960160E074E284E799E4D3
:100B70000E94E20F6AA77BA78CA79DA78E8D9F8DF1
:100B8000A8A1B9A1181619061A061B0634F56A851C
:100B90007B858C859D859B01AC010E9450116B016A
:100BA0007C016A897B898C899D899B01AC010E94AB
:100BB0007A0F9B01AC01C701B6010E94E20F0E94AF
:100BC0004A106E8F7F8F88A399A3CE01DF91CF91BA
:100BD000FF90EF90DF90CF9087CDDF91CF91FF9086
:100BE000EF90DF90CF9008954F925F926F927F9237
:100BF0008F929F92AF92BF92CF92DF92EF92FF922D
:100C0000CF93DF93EC016A017B0120E030E0A90182
:100C1000C701B6010E94DE0F882309F44FC08A88FD
:100C20009B88AC88BD88A5019401C701B6010E94CC
:100C3000DE0F882309F442C06E8D7F8D88A199A1B3
:100C40000E947D102B013C01A7019601C501B40152
:100C50000E94E20F9B01AC01C301B2010E9450113E
:100C60000E944A106E8F7F8F88A399A3A7019601D7
:100C700060E070E080E89FE30E94E20F0E94B711FD
:100C800020E034E244E759E40E9450116AA37BA3B8
:100C90008CA39DA3CA8ADB8AEC8AFD8ACE01DF91F0
:100CA000CF91FF90EF90DF90CF90BF90AF909F904B
:100CB0008F907F906F905F904F9016CDDF91CF9186
:100CC000FF90EF90DF90CF90BF90AF909F908F906C
:100CD0007F906F905F904F900895FC018FE2DF014D
:100CE0001D928A95E9F77183608340E050E060E8E7
:100CF0007FE346875787608B718B128A138A148A29
:100D0000158A42A753A764A775A716A6CF016CCF73
:100D1000FC014283538364837583468357836087D2
:100D20007187168E178E10A211A2168A178A108E3E
:100D3000118E08958F929F92AF92BF92CF92DF92C1
:100D4000EF92FF92CF93DF93EC018A849B84AC8473
:100D5000BD8420E030E0A901C501B4010E94DE0F8E
:100D6000882309F444C0A5019401C501B4010E947F
:100D700050116B017C016A897B898C899D899B015B
:100D8000AC010E947A0F9B01AC01C701B6010E9421
:100D9000E20F0E944A106B017C018FEFC81AD80A3B
:100DA000E80AF80A20E030E0A901C501B4010E9478
:100DB0004C11181644F0F094E094D094C094C11CE7
:100DC000D11CE11CF11C4A815B816C817D814C0D41
:100DD0005D1D6E1D7F1DCE01DF91CF91FF90EF90C5
:100DE000DF90CF90BF90AF909F908F9001CEDF911A
:100DF000CF91FF90EF90DF90CF90BF90AF909F90FA
:100E00008F9008951F920F920FB60F9211242F9377
:100E10003F938F939F93AF93BF9380915E01909187
:100E20005F01A0916001B091610130915D0123E00B
:100E3000230F2D3720F40196A11DB11D05C026E812
:100E4000230F0296A11DB11D20935D0180935E01C9
:100E500090935F01A0936001B09361018091620162
:100E600090916301A0916401B09165010196A11D6B
:100E7000B11D8093620190936301A0936401B093CC
:100E80006501BF91AF919F918F913F912F910F90ED
:100E90000FBE0F901F9018952FB7F89460915E01C8
:100EA00070915F0180916001909161012FBF089561
:100EB0003FB7F8948091620190916301A091640121
:100EC000B091650126B5A89B05C02F3F19F001968A
:100ED000A11DB11D3FBF6627782F892F9A2F620F62
:100EE000711D811D911D42E0660F771F881F991F9C
:100EF0004A95D1F7089584B5826084BD84B5816038
:100F000084BD85B5826085BD85B5816085BDEEE611
:100F1000F0E080818160808308955F98FC0186A560
:100F2000811102C0769A01C076985F9AF5E0FA9531
:100F3000F1F700005F9808952D98FC0186A58111B6
:100F400002C02C9A01C02C982D9AF5E0FA95F1F781
:100F500000002D9808952D982C98259A249A5F9832
:100F60007698579A6E9A6DE877E085E991E0B5DE5C
:100F70006CE977E086E691E0B0DE40E050E068E4BE
:100F800072E485E991E030DE40E050E068E472E42C
:100F900086E691E029DE40E050E068E473E485E90C
:100FA00091E0C8DD40E050E068E473E486E691E05B
:100FB000C1CD85E991E092DD86E691E08FCD60912B
:100FC0009701709198018091990190919A010895EB
:100FD000609168017091690180916A0190916B0143
:100FE00008950F931F9340919B0150919C01609134
:100FF0009D0170919E018091970190919801A0911F
:101000009901B0919A01481B590B6A0B7B0B81E047
:1010100014161506160617060CF080E040916C01B8
:1010200050916D0160916E0170916F0100916801A6
:101030001091690120916A0130916B01401B510BA5
:10104000620B730B14161506160617060CF4826055
:101050001F910F910895CF93DF93EC016091A70149
:101060007091A8018091A9019091AA010E944F104E
:1010700079836883609178017091790180917A0118
:1010800090917B010E944F107B836A836091A30142
:101090007091A4018091A5019091A6010E944F102A
:1010A0007D836C83609174017091750180917601EC
:1010B00090917701F4D77F836E83DF91CF9108956C
:1010C000CF93DF93EC016881798180E090E00E940A
:1010D0007B10AB01BC0185E991E086DD6C817D81EF
:1010E00080E090E00E947B10AB01BC0185E991E0BB
:1010F00021DD6A817B8180E090E0FDD7AB01BC01FE
:1011000086E691E071DD6E817F8180E090E0F3D72B
:10111000AB01BC0186E691E0DF91CF910BCDCF937F
:10112000DF93EC01488159816A817B8185E991E0F7
:101130005FDC4C815D816E817F8186E691E0DF918D
:10114000CF9156CCCF93DF93EC01488159816A81CE
:101150007B8185E991E0DCDD4C815D816E817F8161
:1011600086E691E0DF91CF91D3CDCF93DF931F92AD
:10117000CDB7DEB7882329F085E991E06983DADD10
:101180006981662331F086E691E00F90DF91CF917F
:10119000D1CD0F90DF91CF910895CF92DF92EF9252
:1011A000FF920F931F93CF93DF937C018B01EA0192
:1011B000D4D1811131C0209731F088819981081BE9
:1011C000190BE80EF91EC12CD12C0115110519F1CE
:1011D0008091E80085FD14C08091E8008E778093AF
:1011E000E80066D4209741F0888199818C0D9D1D7F
:1011F0009983888385E010C0B0D1882331F30CC077
:10120000F70181917F018093F10001501109FFEFF7
:10121000CF1ADF0ADACF80E0DF91CF911F910F91D3
:10122000FF90EF90DF90CF9008952091CF01309103
:10123000D0012617370748F06115710539F4209160
:10124000E8002E772093E80001C0B901FC0120E0FE
:1012500061157105C1F18091C801882309F441C06D
:10126000853009F440C08091E80083FD3EC0809144
:10127000E80082FF06C08091E80082FF27C080E07E
:1012800008958091E80080FFE3CF2091F3008091E2
:10129000F20090E0922B6115710551F080349105B8
:1012A00038F421912093F100615071090196F3CF38
:1012B00021E08034910509F020E08091E8008E77EC
:1012C0008093E800C5CF2111C6CFD5CF8091C8014A
:1012D000882339F0853039F08091E80083FFCBCF47
:1012E00004C082E0089583E0089581E008956115C7
:1012F000710529F42091E8002B772093E80061150F
:10130000710541F12091C801222369F1253069F16D
:101310002091E80023FD23C02091E80022FFF2CFB6
:10132000FC01CF014091F3002091F20030E0342B1A
:10133000232B01F38091F1008193CF01615071095A
:101340006115710571F7D6CF8091C801882359F0D6
:10135000853059F08091E80080FFF6CF02C081E02F
:10136000089580E0089582E0089583E00895209133
:10137000CF013091D0012617370748F0611571056C
:1013800039F42091E8002E772093E80001C0B901DC
:10139000FC0120E061157105C9F18091C801882325
:1013A00009F442C0853009F441C08091E80083FD12
:1013B0003FC08091E80082FF06C08091E80082FF74
:1013C00028C080E008958091E80080FFE3CF20915D
:1013D000F3008091F20090E0922B6115710559F0B5
:1013E0008034910540F424912093F10031966150AE
:1013F00071090196F2CF21E08034910509F020E0D7
:101400008091E8008E778093E800C4CF2111C5CF8A
:10141000D4CF8091C801882339F0853039F080918C
:10142000E80083FFCACF04C082E0089583E00895F6
:1014300081E00895982F973058F59093E900981718
:1014400039F07091EC002091ED005091F00003C054
:10145000242F762F50E021FF19C03091EB003E7F02
:101460003093EB003091ED003D7F3093ED003091F3
:10147000EB0031603093EB007093EC002093ED00B3
:101480005093F0002091EE0027FF07C09F5FD3CF5D
:101490008F708093E90081E0089580E008950F93B4
:1014A0001F93CF93DF93062FEC0110E0101771F11B
:1014B0009881992341F12C81E981FA817B81892FDF
:1014C0008F70873010F080E022C0223010F056E09C
:1014D00001C052E028E030E040E02E173F0720F442
:1014E0004F5F220F331FF9CF4295407F452B692F65
:1014F000661F6627661F90E4799F90011124622B76
:1015000099DF882301F31F5F2596D0CF81E0DF911B
:10151000CF911F910F9108958091C90187FD05C05A
:101520008091E80080FF0EC012C08091E80082FD2B
:1015300005C08091C8018111F8CF08958091E8001D
:101540008B7708C08091C8018111EACF08958091FE
:10155000E8008E778093E80008958091E4009091F0
:10156000E50045E62091EC0020FF21C02091E80035
:1015700020FD21C02091C801222389F0253089F067
:101580002091EB0025FD0FC02091E4003091E50093
:101590002817390739F3415041F0C901E3CF82E000
:1015A000089583E0089581E0089584E008952091EE
:1015B000E80022FFDFCF80E008950F931F93CF93C1
:1015C000DF934BD052D0C8EDD0E088818F778883ED
:1015D00088818068888388818F7D888319BC109278
:1015E000C8011092C4011092C6011092C50100EE0C
:1015F00010E0F80180818B7F8083888181608883FF
:1016000042E360E080E016DFE1EEF0E080818E7F73
:101610008083E2EEF0E08081816080838081886059
:101620008083F80180818E7F8083888180618883B8
:10163000DF91CF911F910F910895E8EDF0E0808147
:101640008F7E8083E7EDF0E080818160808384E09D
:1016500082BF81E08093C701B0CFE8EDF0E08081E8
:101660008E7F80831092E20008951092DA0010922B
:10167000E10008951F920F920FB60F9211242F933D
:101680003F934F935F936F937F938F939F93AF930A
:10169000BF93EF93FF938091E10082FF0BC0809195
:1016A000E20082FF07C08091E1008B7F8093E10020
:1016B0000E94E4018091DA0080FF1FC08091D80071
:1016C00080FF1BC08091DA008E7F8093DA008091CA
:1016D000D90080FF0DC080E189BD82E189BD09B4D8
:1016E00000FEFDCF81E08093C8010E94C40105C0C7
:1016F00019BC1092C8010E94D0018091E10080FFC6
:1017000018C08091E20080FF14C08091E2008E7FBB
:101710008093E2008091E20080618093E2008091FA
:10172000D80080628093D80019BC85E08093C801FE
:10173000BED18091E10084FF2FC08091E20084FF40
:101740002BC080E189BD82E189BD09B400FEFDCFD7
:101750008091D8008F7D8093D8008091E1008F7EAA
:101760008093E1008091E2008F7E8093E20080917F
:10177000E20081608093E2008091C401882311F02F
:1017800084E007C08091E30087FF02C083E001C0CE
:1017900081E08093C8018BD18091E10083FF22C05A
:1017A0008091E20083FF1EC08091E100877F8093DB
:1017B000E10082E08093C8011092C4018091E100B1
:1017C0008E7F8093E1008091E2008E7F8093E20023
:1017D0008091E20080618093E20042E360E080E07B
:1017E00029DE65D1FF91EF91BF91AF919F918F91CC
:1017F0007F916F915F914F913F912F910F900FBE0D
:101800000F901F9018951F93CF93DF93CDB7DEB73E
:10181000AA970FB6F894DEBF0FBECDBFE9ECF1E09A
:101820008091F100819321E0E13DF207C9F70E9428
:10183000E0018091E80083FF22C19091C90180916D
:10184000CA01853009F477C030F4813081F168F045
:10185000833069F114C1883009F4E2C0893009F499
:10186000F1C0863009F00BC188C0903881F0923801
:1018700009F005C18091CD018F708093E9008091BE
:10188000EB0085FB882780F91092E90006C0809163
:10189000C5019091C601911182609091E800977FF7
:1018A0009093E8008093F1001092F100C4C0292FBA
:1018B0002D7F09F0E4C0992319F0923061F0DFC068
:1018C0009091CB01913009F0DAC0833009F090E0BB
:1018D0009093C6012AC09091CB01911126C020910E
:1018E000CD012F7009F4CBC02093E9009091EB005B
:1018F00090FF1BC0833021F48091EB00806213C005
:101900008091EB0080618093EB0081E090E0022EFB
:1019100001C0880F0A94EAF78093EA001092EA0067
:101920008091EB0088608093EB001092E900809139
:10193000E800877F83C09111A2C01091CB011F776F
:101940008091E3008078812B8093E3008091E80010
:10195000877F8093E800E0DD8091E80080FFFCCF86
:101960008091E30080688093E300112311F083E00D
:1019700001C082E08093C80182C09058923008F084
:101980007EC08091CB019091CC018C3D23E09207E9
:1019900071F583E08A838AE289834FB7F894DE0188
:1019A000139620E03EE051E2E32FF0E05093570021
:1019B000E49120FF03C0E295EF703F5FEF708E2F40
:1019C00090E0EA3010F0C79601C0C0968D939D93C9
:1019D0002F5F243149F74FBF8091E800877F8093C4
:1019E000E8006AE270E0CE0101961FDC13C0AE0190
:1019F0004F5F5F4F6091CD010E948B02009709F409
:101A00003EC02091E800277F2093E800BC01898137
:101A10009A81ADDC8091E8008B778093E8002FC03D
:101A2000903869F58091E800877F8093E800809185
:101A3000C4018093F1008091E8008E778093E800E4
:101A40006BDD1DC091111BC09091CB019230B8F499
:101A50008091E800877F8093E8009093C4015CDD6B
:101A60008091C401811104C08091E30087FF02C00E
:101A700084E001C081E08093C8010E94D60180917A
:101A8000E80083FF0AC08091E800877F8093E80028
:101A90008091EB0080628093EB00AA960FB6F894D9
:101AA000DEBF0FBECDBFDF91CF911F910895089586
:101AB000CF938091C8018823A9F08091E9008F70AD
:101AC0009091EC0090FF02C090E801C090E0C92F17
:101AD000C82B1092E9008091E80083FD94DECF705E
:101AE000C093E900CF9108956F927F928F929F9259
:101AF000AF92BF92CF92DF92EF92FF920F931F931C
:101B0000CF93DF9300D01F92CDB7DEB77C01ADB687
:101B1000BEB68091E80083FF04C1F701808190E0A8
:101B20002091CD013091CE012817390709F0F9C075
:101B30008091CA01833009F49BC030F4813071F088
:101B4000823009F4D2C0EDC08A3009F4B6C08B30BF
:101B500009F49FC0893009F0E4C04CC08091C901EC
:101B6000813A09F0DEC08DB69EB61A821982809144
:101B7000CB011091CC018B83F701408550E08DB7EC
:101B80009EB7841B950B0FB6F8949EBF0FBE8DBFFA
:101B9000EDB7FEB731966F0160E070E0CF0164D41D
:101BA0004FEF410F8E010F5F1F4F9601BE016D5F1A
:101BB0007F4FC7010E94F001F7018681978100974E
:101BC00021F0408550E0B60146D41092E9008091A2
:101BD000E800877F8093E8008B8181118093F1007A
:101BE00069817A81C60121DB8091E8008B7780933F
:101BF000E80038C08091C901813209F092C08DB6E9
:101C00009EB60091CF011091D0017090CB016090F1
:101C1000CC018DB79EB7801B910B0FB6F8949EBF79
:101C20000FBE8DBFEDB7FEB731966F018091E80012
:101C3000877F8093E800B801CF0159DB8091E800ED
:101C40008E778093E80021E0711001C020E030E041
:101C5000021B130B2C0D3D1D4FEF460D672DC701C9
:101C60000E9448020FB6F8949EBE0FBE8DBE59C0AA
:101C70008091C901813A09F054C08091E800877FC2
:101C80008093E8008091E80080FFFCCFF701818518
:101C900040C08091C901813209F043C08091E800C1
:101CA000877F8093E80038DC9091CB0181E091112F
:101CB00001C080E0F701818734C08091C901813281
:101CC00081F58091E800877F8093E80025DC809192
:101CD000CB019091CC01882736E0969587953A956F
:101CE000E1F7F701958784871CC08091C901813A8B
:101CF000C1F48091E800877F8093E8008091E8003C
:101D000080FFFCCFF70184859585969587959695FC
:101D100087958093F1008091E8008E778093E800AA
:101D2000FBDB0FB6F894BEBE0FBEADBE0F900F909A
:101D30000F90DF91CF911F910F91FF90EF90DF9067
:101D4000CF90BF90AF909F908F907F906F900895AD
:101D5000FC01399627E0DF011D922A95E9F721E081
:101D6000FC01218724EF31E03587248723E0248399
:101D700061E0019694CB5F926F927F928F929F92D7
:101D8000AF92BF92CF92DF92EF92FF920F931F9389
:101D9000CF93DF9300D01F92CDB7DEB77C01ADB6F5
:101DA000BEB68091C801843009F08BC08091E400F8
:101DB0009091E500F701228533852817390709F44A
:101DC00080C081818F708093E9008091E80085FF59
:101DD00078C08DB69EB6408550E08DB79EB7841B07
:101DE000950B0FB6F8949EBF0FBE8DBFEDB7FEB733
:101DF00031966F011B821A82198260E070E0CF0178
:101E000033D38E010F5F1F4F960140E0BE016D5F1F
:101E10007F4FC7010E94F001682EF70184859585E8
:101E2000892B41F021E086859785892B09F020E0F8
:101E3000722E01C0712CF701068117810115110561
:101E400089F049815A81B801C601F8D255245394CA
:101E5000892B09F4512CF701408550E0B601C801E7
:101E6000FAD201C0512C29813A81232BF1F0611063
:101E700004C0511002C070FE18C0F701848595851A
:101E80009787868781818F708093E9008B8181118C
:101E90008093F10069817A8140E050E0C6017DD9EC
:101EA0008091E8008E778093E8008091E400909123
:101EB000E500F701938782870FB6F8949EBE0FBEA8
:101EC0008DBE0FB6F894BEBE0FBEADBE0F900F9084
:101ED0000F90DF91CF911F910F91FF90EF90DF90C6
:101EE000CF90BF90AF909F908F907F906F905F90BA
:101EF00008955058BB27AA270ED094C185D130F041
:101F00008AD120F031F49F3F11F41EF47AC10EF40F
:101F1000E095E7FB70C1E92F96D180F3BA1762070D
:101F200073078407950718F071F49EF5AEC10EF49F
:101F3000E0950B2EBA2FA02D0B01B90190010C01D9
:101F4000CA01A0011124FF27591B99F0593F50F4F1
:101F5000503E68F11A16F040A22F232F342F442749
:101F6000585FF3CF469537952795A795F040539541
:101F7000C9F77EF41F16BA0B620B730B840BBAF011
:101F80009150A1F0FF0FBB1F661F771F881FC2F77C
:101F90000EC0BA0F621F731F841F48F48795779590
:101FA0006795B795F7959E3F08F0B3CF9395880F47
:101FB00008F09927EE0F979587950895F8D008F4C3
:101FC00081E008950CD02EC126D140F01DD130F013
:101FD00021F45F3F19F00FC1511158C112C133D123
:101FE00098F39923C9F35523B1F3951B550BBB27E0
:101FF000AA2762177307840738F09F5F5F4F220F8D
:10200000331F441FAA1FA9F333D00E2E3AF0E0E885
:1020100030D091505040E695001CCAF729D0FE2FD1
:1020200027D0660F771F881FBB1F26173707480763
:10203000AB07B0E809F0BB0B802DBF01FF27935819
:102040005F4F2AF09E3F510568F0D5C01FC15F3F2A
:10205000ECF3983EDCF3869577956795B795F79501
:102060009F5FC9F7880F911D9695879597F90895F9
:10207000E1E0660F771F881FBB1F62177307840795
:10208000BA0720F0621B730B840BBA0BEE1F88F7A4
:10209000E095089504D06894B111F8C00895DBD09C
:1020A00088F09F5790F0B92F9927B751A0F0D1F041
:1020B000660F771F881F991F1AF0BA95C9F712C0CB
:1020C000B13081F0E2D0B1E00895DFC0672F782F02
:1020D0008827B85F39F0B93FCCF386957795679537
:1020E000B395D9F73EF490958095709561957F4FA3
:1020F0008F4F9F4F0895E89409C097FB3EF4909549
:102100008095709561957F4F8F4F9F4F9923A9F0D0
:10211000F92F96E9BB279395F6958795779567955F
:10212000B795F111F8CFFAF4BB0F11F460FF1BC0A3
:102130006F5F7F4F8F4F9F4F16C0882311F096E936
:1021400011C0772321F09EE8872F762F05C06623E4
:1021500071F096E8862F70E060E02AF09A95660F9D
:10216000771F881FDAF7880F9695879597F9089556
:10217000990FBB0B550FAA0BE0E8FEEF16161706DA
:10218000E807F90770F012161306E407F50760F088
:10219000BA173CF049F46217730784079507A795AF
:1021A0001BF4B901CA01BA2FB69597950895990FF6
:1021B0000008550FAA0BE0E8FEEF16161706E80711
:1021C000F907C0F012161306E407F50798F0621B32
:1021D000730B840B950B39F40A2661F0232B242B07
:1021E000252B21F408950A2609F4A140A6958FEF26
:1021F000811D811D089597F99F6780E870E060E078
:1022000008959FEF80EC089500240A94161617068F
:1022100018060906089500240A94121613061406D7
:1022200005060895092E0394000C11F4882352F03A
:10223000BB0F40F4BF2B11F460FF04C06F5F7F4FF2
:102240008F4F9F4F089557FD9058440F551F59F0D9
:102250005F3F71F04795880F97FB991F61F09F3F93
:1022600079F087950895121613061406551FF2CFBC
:102270004695F1DF08C0161617061806991FF1CF0C
:1022800086957105610508940895E894BB27662733
:102290007727CB0197F908958ADF08F48FEF089527
:1022A0000BD0C0CFB1DF28F0B6DF18F0952309F0CE
:1022B000A2CFA7CF1124EACFC6DFA0F3959FD1F319
:1022C000950F50E0551F629FF001729FBB27F00DE4
:1022D000B11D639FAA27F00DB11DAA1F649F662739
:1022E000B00DA11D661F829F2227B00DA11D621F88
:1022F000739FB00DA11D621F839FA00D611D221F42
:10230000749F3327A00D611D231F849F600D211D25
:10231000822F762F6A2F11249F5750408AF0E1F0C8
:1023200088234AF0EE0FFF1FBB1F661F771F881F11
:1023300091505040A9F79E3F510570F05CCFA6CF59
:102340005F3FECF3983EDCF3869577956795B795FC
:10235000F795E7959F5FC1F7FE2B880F911D969526
:10236000879597F9089511F40EF44BCF3EC073DFB3
:10237000D0F39923D9F3CEF39F57550B87FF43D062
:102380000024A0E640EA900180585695979528F4DD
:10239000805C660F771F881F20F0261737074807D5
:1023A00030F4621B730B840B202931294A2BA6952C
:1023B00017940794202531254A2758F7660F771F71
:1023C000881F20F026173707480730F4620B730B7D
:1023D000840B200D311D411DA09581F7B901842F7B
:1023E0009158880F9695879508959F3F31F09150A9
:1023F00020F4879577956795B795880F911D9695E9
:10240000879597F9089591505040660F771F881F60
:10241000D2F70895DC01FB014150504058F049F0DB
:1024200005900D920020C1F7E61BF70B3197CF0105
:1024300008951C9205900020E9F7F6CFFB01DC011E
:1024400004C08D910190801921F441505040C8F78B
:10245000881B990B0895FB01DC0102C001900D92CD
:1024600041505040D8F70895DC0101C06D934150B0
:0A2470005040E0F70895F894FFCF04
:10247A00F401008140000001160140000000000044
:06248A000000FF00FF004E
:00000001FF
